{
  "address": "0x370F50700391ec477a4Ba7Ff031e6b6B56822046",
  "abi": [
    {
      "inputs": [
        {
          "internalType": "address",
          "name": "initialOwner",
          "type": "address"
        }
      ],
      "stateMutability": "nonpayable",
      "type": "constructor"
    },
    {
      "inputs": [
        {
          "internalType": "address",
          "name": "owner",
          "type": "address"
        }
      ],
      "name": "OwnableInvalidOwner",
      "type": "error"
    },
    {
      "inputs": [
        {
          "internalType": "address",
          "name": "account",
          "type": "address"
        }
      ],
      "name": "OwnableUnauthorizedAccount",
      "type": "error"
    },
    {
      "anonymous": false,
      "inputs": [
        {
          "indexed": true,
          "internalType": "address",
          "name": "oldDeployer",
          "type": "address"
        },
        {
          "indexed": true,
          "internalType": "address",
          "name": "newDeployer",
          "type": "address"
        }
      ],
      "name": "DeployerUpdated",
      "type": "event"
    },
    {
      "anonymous": false,
      "inputs": [
        {
          "indexed": true,
          "internalType": "address",
          "name": "previousOwner",
          "type": "address"
        },
        {
          "indexed": true,
          "internalType": "address",
          "name": "newOwner",
          "type": "address"
        }
      ],
      "name": "OwnershipTransferred",
      "type": "event"
    },
    {
      "anonymous": false,
      "inputs": [
        {
          "indexed": true,
          "internalType": "address",
          "name": "marketAddress",
          "type": "address"
        },
        {
          "indexed": false,
          "internalType": "string",
          "name": "topic",
          "type": "string"
        },
        {
          "indexed": true,
          "internalType": "address",
          "name": "creator",
          "type": "address"
        },
        {
          "indexed": false,
          "internalType": "bytes32",
          "name": "salt",
          "type": "bytes32"
        }
      ],
      "name": "SidebetCreated",
      "type": "event"
    },
    {
      "inputs": [
        {
          "internalType": "uint256",
          "name": "",
          "type": "uint256"
        }
      ],
      "name": "allMarkets",
      "outputs": [
        {
          "internalType": "address",
          "name": "",
          "type": "address"
        }
      ],
      "stateMutability": "view",
      "type": "function"
    },
    {
      "inputs": [
        {
          "internalType": "string",
          "name": "topic",
          "type": "string"
        },
        {
          "internalType": "uint256",
          "name": "thresholdPercent",
          "type": "uint256"
        },
        {
          "internalType": "address",
          "name": "tokenAddress",
          "type": "address"
        },
        {
          "internalType": "uint256",
          "name": "minStake",
          "type": "uint256"
        }
      ],
      "name": "createSidebet",
      "outputs": [
        {
          "internalType": "address",
          "name": "marketAddress",
          "type": "address"
        }
      ],
      "stateMutability": "nonpayable",
      "type": "function"
    },
    {
      "inputs": [],
      "name": "getAllMarkets",
      "outputs": [
        {
          "internalType": "address[]",
          "name": "",
          "type": "address[]"
        }
      ],
      "stateMutability": "view",
      "type": "function"
    },
    {
      "inputs": [
        {
          "internalType": "address",
          "name": "market",
          "type": "address"
        }
      ],
      "name": "getMarketInfo",
      "outputs": [
        {
          "components": [
            {
              "internalType": "string",
              "name": "topic",
              "type": "string"
            },
            {
              "internalType": "uint256",
              "name": "thresholdPercent",
              "type": "uint256"
            },
            {
              "internalType": "address",
              "name": "token",
              "type": "address"
            },
            {
              "internalType": "uint256",
              "name": "totalParticipants",
              "type": "uint256"
            },
            {
              "internalType": "uint256",
              "name": "totalStaked",
              "type": "uint256"
            },
            {
              "internalType": "uint256",
              "name": "createdAt",
              "type": "uint256"
            },
            {
              "internalType": "uint256",
              "name": "proposedAt",
              "type": "uint256"
            },
            {
              "internalType": "uint256",
              "name": "resolvedAt",
              "type": "uint256"
            }
          ],
          "internalType": "struct ISidebet.MarketInfo",
          "name": "info",
          "type": "tuple"
        }
      ],
      "stateMutability": "view",
      "type": "function"
    },
    {
      "inputs": [
        {
          "internalType": "address",
          "name": "market",
          "type": "address"
        }
      ],
      "name": "getMarketStatus",
      "outputs": [
        {
          "internalType": "enum ISidebet.Status",
          "name": "status",
          "type": "uint8"
        }
      ],
      "stateMutability": "view",
      "type": "function"
    },
    {
      "inputs": [
        {
          "internalType": "uint256",
          "name": "offset",
          "type": "uint256"
        },
        {
          "internalType": "uint256",
          "name": "limit",
          "type": "uint256"
        }
      ],
      "name": "getMarkets",
      "outputs": [
        {
          "internalType": "address[]",
          "name": "markets",
          "type": "address[]"
        }
      ],
      "stateMutability": "view",
      "type": "function"
    },
    {
      "inputs": [
        {
          "internalType": "address",
          "name": "creator",
          "type": "address"
        }
      ],
      "name": "getMarketsByCreator",
      "outputs": [
        {
          "internalType": "address[]",
          "name": "markets",
          "type": "address[]"
        }
      ],
      "stateMutability": "view",
      "type": "function"
    },
    {
      "inputs": [],
      "name": "getTotalMarkets",
      "outputs": [
        {
          "internalType": "uint256",
          "name": "",
          "type": "uint256"
        }
      ],
      "stateMutability": "view",
      "type": "function"
    },
    {
      "inputs": [
        {
          "internalType": "address",
          "name": "",
          "type": "address"
        }
      ],
      "name": "isMarket",
      "outputs": [
        {
          "internalType": "bool",
          "name": "",
          "type": "bool"
        }
      ],
      "stateMutability": "view",
      "type": "function"
    },
    {
      "inputs": [
        {
          "internalType": "address",
          "name": "market",
          "type": "address"
        }
      ],
      "name": "isValidMarket",
      "outputs": [
        {
          "internalType": "bool",
          "name": "",
          "type": "bool"
        }
      ],
      "stateMutability": "view",
      "type": "function"
    },
    {
      "inputs": [],
      "name": "marketCount",
      "outputs": [
        {
          "internalType": "uint256",
          "name": "",
          "type": "uint256"
        }
      ],
      "stateMutability": "view",
      "type": "function"
    },
    {
      "inputs": [
        {
          "internalType": "address",
          "name": "",
          "type": "address"
        },
        {
          "internalType": "uint256",
          "name": "",
          "type": "uint256"
        }
      ],
      "name": "marketsByCreator",
      "outputs": [
        {
          "internalType": "address",
          "name": "",
          "type": "address"
        }
      ],
      "stateMutability": "view",
      "type": "function"
    },
    {
      "inputs": [],
      "name": "owner",
      "outputs": [
        {
          "internalType": "address",
          "name": "",
          "type": "address"
        }
      ],
      "stateMutability": "view",
      "type": "function"
    },
    {
      "inputs": [
        {
          "internalType": "address",
          "name": "creator",
          "type": "address"
        },
        {
          "internalType": "string",
          "name": "topic",
          "type": "string"
        },
        {
          "internalType": "uint256",
          "name": "thresholdPercent",
          "type": "uint256"
        },
        {
          "internalType": "address",
          "name": "tokenAddress",
          "type": "address"
        },
        {
          "internalType": "uint256",
          "name": "minStake",
          "type": "uint256"
        },
        {
          "internalType": "bytes32",
          "name": "salt",
          "type": "bytes32"
        }
      ],
      "name": "predictAddress",
      "outputs": [
        {
          "internalType": "address",
          "name": "predicted",
          "type": "address"
        }
      ],
      "stateMutability": "view",
      "type": "function"
    },
    {
      "inputs": [],
      "name": "renounceOwnership",
      "outputs": [],
      "stateMutability": "nonpayable",
      "type": "function"
    },
    {
      "inputs": [
        {
          "internalType": "address",
          "name": "newOwner",
          "type": "address"
        }
      ],
      "name": "transferOwnership",
      "outputs": [],
      "stateMutability": "nonpayable",
      "type": "function"
    }
  ],
  "transactionHash": "0x402229dd9597ba0f6b193e8ce47029d736e818d767b6ec462ad2f04b4426bdca",
  "args": [
    "0x83263612eCc2cf4e862E38A3E3c9edd1342600c7"
  ],
  "numDeployments": 1,
  "solcInputHash": "3da5d5d04be24dbbc75c0735fa313e4d",
  "bytecode": "0x608060405234801561001057600080fd5b5060405161385438038061385483398101604081905261002f916100be565b806001600160a01b03811661005e57604051631e4fbdf760e01b81526000600482015260240160405180910390fd5b6100678161006e565b50506100ee565b600080546001600160a01b038381166001600160a01b0319831681178455604051919092169283917f8be0079c531659141344cd1fd0a4f28419497f9722a3daafe3b4186f6b6457e09190a35050565b6000602082840312156100d057600080fd5b81516001600160a01b03811681146100e757600080fd5b9392505050565b613757806100fd6000396000f3fe60806040523480156200001157600080fd5b5060043610620001155760003560e01c806380968d4811620000a3578063cd9026d5116200006e578063cd9026d51462000294578063e99c80bd14620002ab578063ec97908214620002c2578063f2fde38b14620002cc57600080fd5b806380968d48146200023f57806381ebf20914620002655780638da5cb5b1462000278578063b0772d0b146200028a57600080fd5b80636cf0274611620000e45780636cf0274614620001d05780636d5b7a6e14620001f65780636ec934da146200020d578063715018a6146200023357600080fd5b80630cf85bcc146200011a57806313ba3d14146200014957806352d84d1e146200017957806358e6309f1462000190575b600080fd5b620001316200012b36600462000abf565b620002e3565b60405162000140919062000b0c565b60405180910390f35b620001606200015a36600462000bab565b62000407565b6040516001600160a01b03909116815260200162000140565b620001606200018a36600462000bda565b62000440565b620001bf620001a136600462000abf565b6001600160a01b031660009081526002602052604090205460ff1690565b604051901515815260200162000140565b620001e7620001e136600462000abf565b6200046b565b60405162000140919062000bf4565b620001606200020736600462000c69565b6200052f565b620001bf6200021e36600462000abf565b60026020526000908152604090205460ff1681565b6200023d620006c8565b005b620002566200025036600462000cd6565b620006e0565b60405162000140919062000cf9565b6004545b60405190815260200162000140565b6000546001600160a01b031662000160565b6200025662000808565b62000160620002a536600462000d48565b6200086c565b62000256620002bc36600462000abf565b6200094b565b6200026960015481565b6200023d620002dd36600462000abf565b620009c3565b62000335604051806101000160405280606081526020016000815260200160006001600160a01b0316815260200160008152602001600081526020016000815260200160008152602001600081525090565b6001600160a01b03821660009081526002602052604090205460ff16620003985760405162461bcd60e51b8152602060048201526012602482015271139bdd0818481d985b1a59081b585c9ad95d60721b60448201526064015b60405180910390fd5b816001600160a01b03166323341a056040518163ffffffff1660e01b8152600401600060405180830381865afa158015620003d7573d6000803e3d6000fd5b505050506040513d6000823e601f3d908101601f1916820160405262000401919081019062000ebd565b92915050565b600360205281600052604060002081815481106200042457600080fd5b6000918252602090912001546001600160a01b03169150829050565b600481815481106200045157600080fd5b6000918252602090912001546001600160a01b0316905081565b6001600160a01b03811660009081526002602052604081205460ff16620004ca5760405162461bcd60e51b8152602060048201526012602482015271139bdd0818481d985b1a59081b585c9ad95d60721b60448201526064016200038f565b816001600160a01b0316634e69d5606040518163ffffffff1660e01b8152600401602060405180830381865afa15801562000509573d6000803e3d6000fd5b505050506040513d601f19601f8201168201806040525081019062000401919062000f85565b6001546040516bffffffffffffffffffffffff193360601b16602082015242603482015260548101919091526000908190607401604051602081830303815290604052805190602001209050600081888888888833604051620005929062000a9b565b620005a39695949392919062000fd1565b8190604051809103906000f5905080158015620005c4573d6000803e3d6000fd5b506001600160a01b0381166000818152600260209081526040808320805460ff19166001908117909155338452600383529083208054808301825590845291832090910180546001600160a01b031990811685179091556004805480840182559084527f8a35acfbc15ff81a39ae7d344fd709f28e8600b4aa8c65c6b64bfe7fe36bd19b018054909116909317909255815492955085935062000667836200102d565b9190505550336001600160a01b0316836001600160a01b03167fe28833c3f598478ea6a6e2ebd597f617723391e7fd900a3811381704a94b380a8a8a86604051620006b59392919062001049565b60405180910390a3505095945050505050565b620006d2620009db565b620006de600062000a0a565b565b6004546060908084106200070557505060408051600081526020810190915262000401565b82816200071382876200106f565b1115620007295762000726858362001085565b90505b8067ffffffffffffffff81111562000745576200074562000dd6565b6040519080825280602002602001820160405280156200076f578160200160208202803683370190505b50925060005b81811015620007ff5760046200078c82886200106f565b815481106200079f576200079f6200109b565b9060005260206000200160009054906101000a90046001600160a01b0316848281518110620007d257620007d26200109b565b6001600160a01b039092166020928302919091019091015280620007f6816200102d565b91505062000775565b50505092915050565b606060048054806020026020016040519081016040528092919081815260200182805480156200086257602002820191906000526020600020905b81546001600160a01b0316815260019091019060200180831162000843575b5050505050905090565b60008060405180602001620008819062000a9b565b6020820181038252601f19601f82011660405250905060008189898989898f604051602001620008b79695949392919062000fd1565b60408051601f1981840301815290829052620008d79291602001620010b1565b60408051808303601f1901815282825280516020918201206001600160f81b0319828501523060601b6bffffffffffffffffffffffff191660218501526035840197909752605580840197909752815180840390970187526075909201905284519401939093209998505050505050505050565b6001600160a01b038116600090815260036020908152604091829020805483518184028101840190945280845260609392830182828015620009b757602002820191906000526020600020905b81546001600160a01b0316815260019091019060200180831162000998575b50505050509050919050565b620009cd620009db565b620009d88162000a5a565b50565b6000546001600160a01b03163314620006de5760405163118cdaa760e01b81523360048201526024016200038f565b600080546001600160a01b038381166001600160a01b0319831681178455604051919092169283917f8be0079c531659141344cd1fd0a4f28419497f9722a3daafe3b4186f6b6457e09190a35050565b62000a64620009db565b6001600160a01b03811662000a9057604051631e4fbdf760e01b8152600060048201526024016200038f565b620009d88162000a0a565b61263d80620010e583390190565b6001600160a01b0381168114620009d857600080fd5b60006020828403121562000ad257600080fd5b813562000adf8162000aa9565b9392505050565b60005b8381101562000b0357818101518382015260200162000ae9565b50506000910152565b602081526000825161010080602085015281518061012086015261014062000b3b828288016020870162000ae6565b602087015160408701526040870151935062000b6260608701856001600160a01b03169052565b60608701516080870152608087015160a087015260a087015160c087015260c087015160e087015260e08701518387015280601f19601f84011687010194505050505092915050565b6000806040838503121562000bbf57600080fd5b823562000bcc8162000aa9565b946020939093013593505050565b60006020828403121562000bed57600080fd5b5035919050565b602081016005831062000c1757634e487b7160e01b600052602160045260246000fd5b91905290565b60008083601f84011262000c3057600080fd5b50813567ffffffffffffffff81111562000c4957600080fd5b60208301915083602082850101111562000c6257600080fd5b9250929050565b60008060008060006080868803121562000c8257600080fd5b853567ffffffffffffffff81111562000c9a57600080fd5b62000ca88882890162000c1d565b90965094505060208601359250604086013562000cc58162000aa9565b949793965091946060013592915050565b6000806040838503121562000cea57600080fd5b50508035926020909101359150565b6020808252825182820181905260009190848201906040850190845b8181101562000d3c5783516001600160a01b03168352928401929184019160010162000d15565b50909695505050505050565b600080600080600080600060c0888a03121562000d6457600080fd5b873562000d718162000aa9565b9650602088013567ffffffffffffffff81111562000d8e57600080fd5b62000d9c8a828b0162000c1d565b90975095505060408801359350606088013562000db98162000aa9565b969995985093969295946080840135945060a09093013592915050565b634e487b7160e01b600052604160045260246000fd5b604051610100810167ffffffffffffffff8111828210171562000e135762000e1362000dd6565b60405290565b600082601f83011262000e2b57600080fd5b815167ffffffffffffffff8082111562000e495762000e4962000dd6565b604051601f8301601f19908116603f0116810190828211818310171562000e745762000e7462000dd6565b8160405283815286602085880101111562000e8e57600080fd5b62000ea184602083016020890162000ae6565b9695505050505050565b805162000eb88162000aa9565b919050565b60006020828403121562000ed057600080fd5b815167ffffffffffffffff8082111562000ee957600080fd5b90830190610100828603121562000eff57600080fd5b62000f0962000dec565b82518281111562000f1957600080fd5b62000f278782860162000e19565b8252506020830151602082015262000f426040840162000eab565b6040820152606083015160608201526080830151608082015260a083015160a082015260c083015160c082015260e083015160e082015280935050505092915050565b60006020828403121562000f9857600080fd5b81516005811062000adf57600080fd5b81835281816020850137506000828201602090810191909152601f909101601f19169091010190565b60a08152600062000fe760a08301888a62000fa8565b6020830196909652506001600160a01b039384166040820152606081019290925290911660809091015292915050565b634e487b7160e01b600052601160045260246000fd5b60006001820162001042576200104262001017565b5060010190565b6040815260006200105f60408301858762000fa8565b9050826020830152949350505050565b8082018082111562000401576200040162001017565b8181038181111562000401576200040162001017565b634e487b7160e01b600052603260045260246000fd5b60008351620010c581846020880162000ae6565b835190830190620010db81836020880162000ae6565b0194935050505056fe6101006040523480156200001257600080fd5b506040516200263d3803806200263d83398101604081905262000035916200027e565b60016000556113888410806200004c57506126ac84115b156200006b57604051631809b0a160e11b815260040160405180910390fd5b6001600160a01b038316620000935760405163c1ab6dc160e01b815260040160405180910390fd5b6040805161010081018252868152602081018690526001600160a01b03851691810191909152600060608201819052608082018190524260a083015260c0820181905260e0820152600480620000ea88826200041b565b50602082810151600183810191909155604080850151600280860180546001600160a01b0319166001600160a01b039384161790556060808801516003808901919091556080808a015160048a015560a0808b015160058b015560c0808c015160068c015560e09b8c015160079b8c01559d861681529a9094168452998b52815460ff19169091556000909855815180830183529485526614da591958995d60ca1b9484019490945280518082018252918252603160f81b9183019190915280517f8b73c3c69bb8fe3d512ecc4cf759cc79239f7b179b0ffacaa9a75d522b39400f818401527f0f4358218859082459a3b4419289d305a33bbfd49e2e18aaa6205531a492bf26818301527fc89efdaa54c0f20c7adf612882df0950f5a951637e0307cdcb4c672f298b8bc6968101969096524692860192909252308585015281518086039094018452939094019093528051910120905250620004e79050565b634e487b7160e01b600052604160045260246000fd5b80516001600160a01b03811681146200027957600080fd5b919050565b600080600080600060a086880312156200029757600080fd5b85516001600160401b0380821115620002af57600080fd5b818801915088601f830112620002c457600080fd5b815181811115620002d957620002d96200024b565b604051601f8201601f19908116603f011681019083821181831017156200030457620003046200024b565b81604052828152602093508b848487010111156200032157600080fd5b600091505b8282101562000345578482018401518183018501529083019062000326565b60008484830101528099505050508088015195505050620003696040870162000261565b925060608601519150620003806080870162000261565b90509295509295909350565b600181811c90821680620003a157607f821691505b602082108103620003c257634e487b7160e01b600052602260045260246000fd5b50919050565b601f8211156200041657600081815260208120601f850160051c81016020861015620003f15750805b601f850160051c820191505b818110156200041257828155600101620003fd565b5050505b505050565b81516001600160401b038111156200043757620004376200024b565b6200044f816200044884546200038c565b84620003c8565b602080601f8311600181146200048757600084156200046e5750858301515b600019600386901b1c1916600185901b17855562000412565b600085815260208120601f198616915b82811015620004b85788860151825594840194600190910190840162000497565b5085821015620004d75787850151600019600388901b60f8161c191681555b5050505050600190811b01905550565b60805160a05160c05160e0516120f96200054460003960006112a70152600081816103b20152610bba01526000818161065f01528181610c990152818161117501526117d90152600081816101ce015261105001526120f96000f3fe6080604052600436106101855760003560e01c8063753ec103116100d15780639af523ff1161008a578063b99ca5cd11610064578063b99ca5cd14610559578063b9e2bea014610579578063ea8a1af014610638578063fc0c546a1461064d576101a3565b80639af523ff1461050e578063ad6057291461052e578063affed0e014610543576101a3565b8063753ec1031461040e5780637b0472f01461046e5780637b788b7f1461048e5780637ecebe00146104a35780638f645bd3146104d9578063939c4456146104f9576101a3565b806322f19e651161013e578063370158ea11610118578063370158ea14610377578063375b3c0a146103a05780634e69d560146103d45780635aa68ac0146103ec576101a3565b806322f19e651461031357806323341a05146103335780632fb2c8b114610355576101a3565b806302d05d3f146101bc5780630917e7761461020d57806309e69ede1461022c5780630e6fdaa1146102a757806316ebd35f146102c7578063200d2ed2146102ec576101a3565b366101a35760405163162908e360e11b815260040160405180910390fd5b60405163162908e360e11b815260040160405180910390fd5b3480156101c857600080fd5b506101f07f000000000000000000000000000000000000000000000000000000000000000081565b6040516001600160a01b0390911681526020015b60405180910390f35b34801561021957600080fd5b506008545b604051908152602001610204565b34801561023857600080fd5b5061027b610247366004611b87565b60116020526000908152604090208054600182015460028301546003909301546001600160a01b0390921692909160ff1684565b604080516001600160a01b03909516855260208501939093529183015215156060820152608001610204565b3480156102b357600080fd5b506101f06102c2366004611bb0565b610681565b3480156102d357600080fd5b506102dc6106ab565b6040519015158152602001610204565b3480156102f857600080fd5b506002546103069060ff1681565b6040516102049190611c01565b34801561031f57600080fd5b506101f061032e366004611c58565b61070b565b34801561033f57600080fd5b50610348610766565b6040516102049190611cf4565b34801561036157600080fd5b50610375610370366004611d6d565b6108ac565b005b34801561038357600080fd5b5061038c6109b6565b604051610204989796959493929190611daf565b3480156103ac57600080fd5b5061021e7f000000000000000000000000000000000000000000000000000000000000000081565b3480156103e057600080fd5b5060025460ff16610306565b3480156103f857600080fd5b50610401610a7e565b6040516102049190611e03565b34801561041a57600080fd5b50600c54600d54600e54600f5460105461043e94936001600160a01b031692919085565b604080519586526001600160a01b039094166020860152928401919091526060830152608082015260a001610204565b34801561047a57600080fd5b50610375610489366004611e72565b610baf565b34801561049a57600080fd5b5061021e610d0d565b3480156104af57600080fd5b5061021e6104be366004611b87565b6001600160a01b031660009081526001602052604090205490565b3480156104e557600080fd5b506103756104f4366004611e72565b610d1c565b34801561050557600080fd5b5061021e610e87565b34801561051a57600080fd5b5061021e610529366004611bb0565b610eb6565b34801561053a57600080fd5b5060125461021e565b34801561054f57600080fd5b5061021e60035481565b34801561056557600080fd5b50610375610574366004611e94565b610ec7565b34801561058557600080fd5b506105f26040805160a081018252600080825260208201819052918101829052606081018290526080810191909152506040805160a081018252600c548152600d546001600160a01b03166020820152600e5491810191909152600f546060820152601054608082015290565b6040516102049190815181526020808301516001600160a01b03169082015260408083015190820152606080830151908201526080918201519181019190915260a00190565b34801561064457600080fd5b50610375611045565b34801561065957600080fd5b506101f07f000000000000000000000000000000000000000000000000000000000000000081565b6012818154811061069157600080fd5b6000918252602090912001546001600160a01b0316905081565b6000600160025460ff1660048111156106c6576106c6611bc9565b141580156106eb5750600360025460ff1660048111156106e8576106e8611bc9565b14155b156106f65750600090565b60006107006111ff565b600e54101592915050565b6000806107178361123a565b905061075b85858080601f01602080910402602001604051908101604052809392919081815260200183838082843760009201919091525085939250506112ee9050565b9150505b9392505050565b6107b7604051806101000160405280606081526020016000815260200160006001600160a01b0316815260200160008152602001600081526020016000815260200160008152602001600081525090565b6004604051806101000160405290816000820180546107d590611f0f565b80601f016020809104026020016040519081016040528092919081815260200182805461080190611f0f565b801561084e5780601f106108235761010080835404028352916020019161084e565b820191906000526020600020905b81548152906001019060200180831161083157829003601f168201915b50505091835250506001820154602082015260028201546001600160a01b031660408201526003820154606082015260048201546080820152600582015460a0820152600682015460c082015260079091015460e090910152919050565b336000908152601160205260409020546001600160a01b03166108e957604051637e65d0e560e01b81523360048201526024015b60405180910390fd5b600160025460ff16600481111561090257610902611bc9565b1461092a5760025460405163f924664d60e01b81526108e09160ff1690600190600401611f43565b600f54421061094c57604051637c9d2ba760e01b815260040160405180910390fd5b6002805460ff1916600317815561096690611c2090611f74565b6109709042611f8b565b600f81905560405133917fd4882c6b71dfbb8df0a01fa4cd97676f243a56dd525df6b891b2e1700e514e89916109aa918691869190611f9e565b60405180910390a25050565b6004805481906109c590611f0f565b80601f01602080910402602001604051908101604052809291908181526020018280546109f190611f0f565b8015610a3e5780601f10610a1357610100808354040283529160200191610a3e565b820191906000526020600020905b815481529060010190602001808311610a2157829003601f168201915b50505050600183015460028401546003850154600486015460058701546006880154600790980154969794966001600160a01b0390941695509193909288565b60125460609060009067ffffffffffffffff811115610a9f57610a9f611fd7565b604051908082528060200260200182016040528015610af157816020015b604080516080810182526000808252602080830182905292820181905260608201528252600019909201910181610abd5790505b50905060005b601254811015610ba9576011600060128381548110610b1857610b18611fed565b60009182526020808320909101546001600160a01b0390811684528382019490945260409283019091208251608081018452815490941684526001810154918401919091526002810154918301919091526003015460ff16151560608201528251839083908110610b8b57610b8b611fed565b60200260200101819052508080610ba190612003565b915050610af7565b50919050565b610bb7611318565b817f0000000000000000000000000000000000000000000000000000000000000000811015610bf95760405163162908e360e11b815260040160405180910390fd5b600060025460ff166004811115610c1257610c12611bc9565b14610c3a5760025460405163f924664d60e01b81526108e09160ff1690600090600401611f43565b6001821115610c5f576040516316e55c9760e11b8152600481018390526024016108e0565b33803b8015610c815760405163162908e360e11b815260040160405180910390fd5b610c8c828686611342565b610cc16001600160a01b037f000000000000000000000000000000000000000000000000000000000000000016333088611454565b604080518681526020810186905233917f05cce4a371bf9816b1a7594f1d76c98eba4ed025ff3e471234ae598f17899bd4910160405180910390a2505050610d096001600055565b5050565b6000610d176111ff565b905090565b336000908152601160205260409020546001600160a01b0316610d5457604051637e65d0e560e01b81523360048201526024016108e0565b600060025460ff166004811115610d6d57610d6d611bc9565b14610d955760025460405163f924664d60e01b81526108e09160ff1690600090600401611f43565b6001821115610dba576040516316e55c9760e11b8152600481018390526024016108e0565b6002805460ff1916600117905542600a8190556040805160a081018252848152336020820152600091810191909152906060820190610dfc90611c2090611f8b565b815260209081018390528151600c5581810151600d80546001600160a01b0319166001600160a01b03909216919091179055604080830151600e55606080840151600f81905560809094015160105581518681529283018590529082019290925233917fff99c026469df5905dfc3c9e4a0ea0845bf8d0b22acb4c4358abd35be1bd657791016109aa565b6007546000908103610e995750600090565b600754600e54610eac9061271090611f74565b610d17919061201c565b6000610ec18261123a565b92915050565b610ecf611318565b600160025460ff166004811115610ee857610ee8611bc9565b14158015610f0d5750600360025460ff166004811115610f0a57610f0a611bc9565b14155b15610f355760025460405163f924664d60e01b81526108e09160ff1690600190600401611f43565b600c548114610f5a576040516316e55c9760e11b8152600481018290526024016108e0565b600f54421015610f7d57604051637c9d2ba760e01b815260040160405180910390fd5b6000610f8a8484846114c1565b90506000610f966111ff565b905080821015610fc3576040516305bc216760e51b815260048101829052602481018390526044016108e0565b610fcc8361163b565b6002805460ff19168117905542600b5560038054906000610fec83612003565b9091555050600854604080518581526020810185905280820192909252517ffb14f4692212f419f2ea8d2046f8a1cc95c640e63f713d03292ca95e111c96a09181900360600190a150506110406001600055565b505050565b336001600160a01b037f0000000000000000000000000000000000000000000000000000000000000000161461108e576040516308f78f9960e31b815260040160405180910390fd5b611096611318565b600060025460ff1660048111156110af576110af611bc9565b146110d75760025460405163f924664d60e01b81526108e09160ff1690600090600401611f43565b6009546110e8906201518090611f8b565b421061110757604051630790f4d160e01b815260040160405180910390fd5b6002805460ff191660041790556000805b6012548110156111be5760006012828154811061113757611137611fed565b60009182526020808320909101546001600160a01b0316808352601190915260409091206001015490915080156111a95761119c6001600160a01b037f0000000000000000000000000000000000000000000000000000000000000000168383611817565b6111a68185611f8b565b93505b505080806111b690612003565b915050611118565b506040518181527f2ca440fb7fca85d7f55d395a4abd94817330b83a62f3502efbb4770144e4ca979060200160405180910390a1506111fd6001600055565b565b60055460075460009182916127109161121791611f74565b611221919061201c565b905060008111611232576001611234565b805b91505090565b600354604080517f077b177369efc7a41b520f61f72b9cca40fd041f26326dfde28e7a877978e301602080830191909152308284015260608201949094526080808201939093528151808203909301835260a08101825282519284019290922061190160f01b60c08401527f000000000000000000000000000000000000000000000000000000000000000060c284015260e280840191909152815180840390910181526101029092019052805191012090565b6000806000806112fe8686611848565b92509250925061130e8282611895565b5090949350505050565b60026000540361133b57604051633ee5aeb560e01b815260040160405180910390fd5b6002600055565b6001600160a01b0380841660009081526011602052604090208054909116611414576012546103e8116113885760405163162908e360e11b815260040160405180910390fd5b80546001600160a01b0385166001600160a01b03199182168117835560018084018690556002840185905560038401805460ff1916905560128054918201815560009081527fbb8a6a4669ba250d26cd7a459eca9d215f8307e33aebe50379bc5a3617ec34449091018054909316909117909155600780549161140a83612003565b9190505550611435565b828160010160008282546114289190611f8b565b9091555050600281018290555b826004800160008282546114499190611f8b565b909155505050505050565b6040516001600160a01b0384811660248301528381166044830152606482018390526114bb9186918216906323b872dd906084015b604051602081830303815290604052915060e01b6020820180516001600160e01b03838183161783525050505061194e565b50505050565b6000806114cd8361123a565b905060005b848110156116175760006115408787848181106114f1576114f1611fed565b9050602002810190611503919061203e565b8080601f01602080910402602001604051908101604052809392919081815260200183838082843760009201919091525087939250506112ee9050565b6001600160a01b03808216600090815260116020526040902054919250161580159061158857506001600160a01b03811660009081526011602052604090206003015460ff16155b15611604576001600160a01b0381166000908152601160205260409020600301805460ff19166001179055836115bd81612003565b945050806001600160a01b03167fddcce694e22540d5987e2a3f1eb84ce238b84cbd191707f8deae9cb6f21d6186866040516115fb91815260200190565b60405180910390a25b508061160f81612003565b9150506114d2565b5081600c600201600082825461162d9190611f8b565b909155509195945050505050565b60008060005b6012548110156117045760006012828154811061166057611660611fed565b60009182526020808320909101546001600160a01b0390811680845260118352604093849020845160808101865281549093168352600181015493830193909352600283015493820184905260039092015460ff1615156060820152909250908690036116dd5760208101516116d69086611f8b565b94506116ef565b60208101516116ec9085611f8b565b93505b505080806116fc90612003565b915050611641565b5060005b6012548110156114bb5760006012828154811061172757611727611fed565b60009182526020808320909101546001600160a01b0390811680845260118352604093849020845160808101865281549093168352600181015493830193909352600283015493820184905260039092015460ff16151560608201529092509086148015611799575060008160200151115b15611802576000858583602001516117b19190611f74565b6117bb919061201c565b82602001516117ca9190611f8b565b90506118006001600160a01b037f0000000000000000000000000000000000000000000000000000000000000000168483611817565b505b5050808061180f90612003565b915050611708565b6040516001600160a01b0383811660248301526044820183905261104091859182169063a9059cbb90606401611489565b600080600083516041036118825760208401516040850151606086015160001a611874888285856119b1565b95509550955050505061188e565b50508151600091506002905b9250925092565b60008260038111156118a9576118a9611bc9565b036118b2575050565b60018260038111156118c6576118c6611bc9565b036118e45760405163f645eedf60e01b815260040160405180910390fd5b60028260038111156118f8576118f8611bc9565b036119195760405163fce698f760e01b8152600481018290526024016108e0565b600382600381111561192d5761192d611bc9565b03610d09576040516335e2f38360e21b8152600481018290526024016108e0565b60006119636001600160a01b03841683611a80565b905080516000141580156119885750808060200190518101906119869190612085565b155b1561104057604051635274afe760e01b81526001600160a01b03841660048201526024016108e0565b600080807f7fffffffffffffffffffffffffffffff5d576e7357a4501ddfe92f46681b20a08411156119ec5750600091506003905082611a76565b604080516000808252602082018084528a905260ff891692820192909252606081018790526080810186905260019060a0016020604051602081039080840390855afa158015611a40573d6000803e3d6000fd5b5050604051601f1901519150506001600160a01b038116611a6c57506000925060019150829050611a76565b9250600091508190505b9450945094915050565b606061075f8383600084600080856001600160a01b03168486604051611aa691906120a7565b60006040518083038185875af1925050503d8060008114611ae3576040519150601f19603f3d011682016040523d82523d6000602084013e611ae8565b606091505b5091509150611af8868383611b02565b9695505050505050565b606082611b1757611b1282611b5e565b61075f565b8151158015611b2e57506001600160a01b0384163b155b15611b5757604051639996b31560e01b81526001600160a01b03851660048201526024016108e0565b508061075f565b805115611b6e5780518082602001fd5b604051630a12f52160e11b815260040160405180910390fd5b600060208284031215611b9957600080fd5b81356001600160a01b038116811461075f57600080fd5b600060208284031215611bc257600080fd5b5035919050565b634e487b7160e01b600052602160045260246000fd5b60058110611bfd57634e487b7160e01b600052602160045260246000fd5b9052565b60208101610ec18284611bdf565b60008083601f840112611c2157600080fd5b50813567ffffffffffffffff811115611c3957600080fd5b602083019150836020828501011115611c5157600080fd5b9250929050565b600080600060408486031215611c6d57600080fd5b833567ffffffffffffffff811115611c8457600080fd5b611c9086828701611c0f565b909790965060209590950135949350505050565b60005b83811015611cbf578181015183820152602001611ca7565b50506000910152565b60008151808452611ce0816020860160208601611ca4565b601f01601f19169290920160200192915050565b6020815260008251610100806020850152611d13610120850183611cc8565b91506020850151604085015260018060a01b03604086015116606085015260608501516080850152608085015160a085015260a085015160c085015260c085015160e085015260e085015181850152508091505092915050565b60008060208385031215611d8057600080fd5b823567ffffffffffffffff811115611d9757600080fd5b611da385828601611c0f565b90969095509350505050565b6000610100808352611dc38184018c611cc8565b602084019a909a5250506001600160a01b039690961660408701526060860194909452608085019290925260a084015260c083015260e090910152919050565b602080825282518282018190526000919060409081850190868401855b82811015611e6557815180516001600160a01b031685528681015187860152858101518686015260609081015115159085015260809093019290850190600101611e20565b5091979650505050505050565b60008060408385031215611e8557600080fd5b50508035926020909101359150565b600080600060408486031215611ea957600080fd5b833567ffffffffffffffff80821115611ec157600080fd5b818601915086601f830112611ed557600080fd5b813581811115611ee457600080fd5b8760208260051b8501011115611ef957600080fd5b6020928301989097509590910135949350505050565b600181811c90821680611f2357607f821691505b602082108103610ba957634e487b7160e01b600052602260045260246000fd5b60408101611f518285611bdf565b61075f6020830184611bdf565b634e487b7160e01b600052601160045260246000fd5b8082028115828204841417610ec157610ec1611f5e565b80820180821115610ec157610ec1611f5e565b604081528260408201528284606083013760006060848301015260006060601f19601f8601168301019050826020830152949350505050565b634e487b7160e01b600052604160045260246000fd5b634e487b7160e01b600052603260045260246000fd5b60006001820161201557612015611f5e565b5060010190565b60008261203957634e487b7160e01b600052601260045260246000fd5b500490565b6000808335601e1984360301811261205557600080fd5b83018035915067ffffffffffffffff82111561207057600080fd5b602001915036819003821315611c5157600080fd5b60006020828403121561209757600080fd5b8151801515811461075f57600080fd5b600082516120b9818460208701611ca4565b919091019291505056fea26469706673582212204ab6d923e1349b4f7a36d6583e259a94b23ec0299305557cc57e1e9a80dd22ea64736f6c63430008140033a264697066735822122064eac9c7576f96d0984595da92c50096ba1e741f8105ee41e1a7b022bf225cf664736f6c63430008140033",
  "devdoc": {
    "author": "Sidebets Team",
    "errors": {
      "OwnableInvalidOwner(address)": [
        {
          "details": "The owner is not a valid owner account. (eg. `address(0)`)"
        }
      ],
      "OwnableUnauthorizedAccount(address)": [
        {
          "details": "The caller account is not authorized to perform an operation."
        }
      ]
    },
    "kind": "dev",
    "methods": {
      "createSidebet(string,uint256,address,uint256)": {
        "params": {
          "minStake": "Minimum stake amount",
          "thresholdPercent": "Consensus threshold in basis points (5000-9900)",
          "tokenAddress": "Token address for staking",
          "topic": "Market topic/description"
        },
        "returns": {
          "marketAddress": "Address of the newly created market"
        }
      },
      "getAllMarkets()": {
        "details": "Warning: May be expensive for large numbers of markets",
        "returns": {
          "_0": "markets Array of all market addresses"
        }
      },
      "getMarketInfo(address)": {
        "params": {
          "market": "Address of the market"
        },
        "returns": {
          "info": "Market information"
        }
      },
      "getMarketStatus(address)": {
        "params": {
          "market": "Address of the market"
        },
        "returns": {
          "status": "Current market status"
        }
      },
      "getMarkets(uint256,uint256)": {
        "params": {
          "limit": "Maximum number of markets to return",
          "offset": "Starting index"
        },
        "returns": {
          "markets": "Array of market addresses"
        }
      },
      "getMarketsByCreator(address)": {
        "params": {
          "creator": "Address of the creator"
        },
        "returns": {
          "markets": "Array of market addresses"
        }
      },
      "getTotalMarkets()": {
        "returns": {
          "_0": "count Total market count"
        }
      },
      "isValidMarket(address)": {
        "params": {
          "market": "Address to check"
        },
        "returns": {
          "_0": "valid True if the address is a valid market"
        }
      },
      "owner()": {
        "details": "Returns the address of the current owner."
      },
      "predictAddress(address,string,uint256,address,uint256,bytes32)": {
        "params": {
          "creator": "Address that will deploy the market",
          "minStake": "Minimum stake amount",
          "salt": "Salt for CREATE2",
          "thresholdPercent": "Consensus threshold",
          "tokenAddress": "Token address",
          "topic": "Market topic"
        },
        "returns": {
          "predicted": "Predicted contract address"
        }
      },
      "renounceOwnership()": {
        "details": "Leaves the contract without owner. It will not be possible to call `onlyOwner` functions. Can only be called by the current owner. NOTE: Renouncing ownership will leave the contract without an owner, thereby disabling any functionality that is only available to the owner."
      },
      "transferOwnership(address)": {
        "params": {
          "newOwner": "New owner address"
        }
      }
    },
    "title": "SidebetFactory",
    "version": 1
  },
  "userdoc": {
    "kind": "user",
    "methods": {
      "createSidebet(string,uint256,address,uint256)": {
        "notice": "Create a new betting market"
      },
      "getAllMarkets()": {
        "notice": "Get all market addresses"
      },
      "getMarketInfo(address)": {
        "notice": "Get market info for a specific market"
      },
      "getMarketStatus(address)": {
        "notice": "Get market status"
      },
      "getMarkets(uint256,uint256)": {
        "notice": "Get paginated list of all markets"
      },
      "getMarketsByCreator(address)": {
        "notice": "Get all markets by a specific creator"
      },
      "getTotalMarkets()": {
        "notice": "Get the total number of markets"
      },
      "isValidMarket(address)": {
        "notice": "Check if an address is a valid market created by this factory"
      },
      "predictAddress(address,string,uint256,address,uint256,bytes32)": {
        "notice": "Predict the address of a market before deployment"
      },
      "transferOwnership(address)": {
        "notice": "Transfer ownership of the factory"
      }
    },
    "notice": "Factory contract for creating Sidebet markets using CREATE2",
    "version": 1
  },
  "storageLayout": {
    "storage": [
      {
        "astId": 8,
        "contract": "contracts/SidebetFactory.sol:SidebetFactory",
        "label": "_owner",
        "offset": 0,
        "slot": "0",
        "type": "t_address"
      },
      {
        "astId": 3196,
        "contract": "contracts/SidebetFactory.sol:SidebetFactory",
        "label": "marketCount",
        "offset": 0,
        "slot": "1",
        "type": "t_uint256"
      },
      {
        "astId": 3200,
        "contract": "contracts/SidebetFactory.sol:SidebetFactory",
        "label": "isMarket",
        "offset": 0,
        "slot": "2",
        "type": "t_mapping(t_address,t_bool)"
      },
      {
        "astId": 3205,
        "contract": "contracts/SidebetFactory.sol:SidebetFactory",
        "label": "marketsByCreator",
        "offset": 0,
        "slot": "3",
        "type": "t_mapping(t_address,t_array(t_address)dyn_storage)"
      },
      {
        "astId": 3208,
        "contract": "contracts/SidebetFactory.sol:SidebetFactory",
        "label": "allMarkets",
        "offset": 0,
        "slot": "4",
        "type": "t_array(t_address)dyn_storage"
      }
    ],
    "types": {
      "t_address": {
        "encoding": "inplace",
        "label": "address",
        "numberOfBytes": "20"
      },
      "t_array(t_address)dyn_storage": {
        "base": "t_address",
        "encoding": "dynamic_array",
        "label": "address[]",
        "numberOfBytes": "32"
      },
      "t_bool": {
        "encoding": "inplace",
        "label": "bool",
        "numberOfBytes": "1"
      },
      "t_mapping(t_address,t_array(t_address)dyn_storage)": {
        "encoding": "mapping",
        "key": "t_address",
        "label": "mapping(address => address[])",
        "numberOfBytes": "32",
        "value": "t_array(t_address)dyn_storage"
      },
      "t_mapping(t_address,t_bool)": {
        "encoding": "mapping",
        "key": "t_address",
        "label": "mapping(address => bool)",
        "numberOfBytes": "32",
        "value": "t_bool"
      },
      "t_uint256": {
        "encoding": "inplace",
        "label": "uint256",
        "numberOfBytes": "32"
      }
    }
  }
}